S01A00004368726973746D61735F547265655F322E312E737265637D
S113000019C033C032C031C030C02FC02EC02DC083
S11300102CC02BC02AC029C028C027C026C025C098
S113002024C023C022C021C020C01FC01EC01DC0C8
S11300301CC01BC011241FBECFEFD2E0DEBFCDBF5A
S113004011E0A0E0B1E0E6EEF3E002C005900D920D
S1130050A630B107D9F721E0A6E0B1E001C01D92B6
S1130060A730B207E1F7A3D0BCC1CACF18B81BB8F8
S11300700895FCDF86E098E098B9EFE4F3EC31975B
S1130080F1F700C0000018B8EFE4F3EC3197F1F792
S113009000C00000815081F7E9DF089551E058B9AC
S11300A087EA91E60197F1F700C0000043E048B900
S11300B0E7EAF1E63197F1F700C0000037E038B91C
S11300C087EA91E60197F1F700C000002FE028B914
S11300D0E7EAF1E63197F1F700C000009FE198B933
S11300E0E7EAF1E63197F1F700C000008FE388B941
S11300F0E7EAF1E63197F1F700C000005BB9E7EAFF
S1130100F1E63197F1F700C000004BB9E7EAF1E6F8
S11301103197F1F700C000003BB9E7EAF1E6319707
S1130120F1F700C000002BB9E7EAF1E63197F1F7E7
S113013000C000009BB9E7EAF1E63197F1F700C08F
S113014000008BB987EA91E60197F1F700C000003F
S11301508FE78BB9E7EAF1E63197F1F700C00000C9
S113016085DF0895189B09C080910401813029F42A
S113017095DF82E0809304010895189B17C0809155
S11301800401823099F42FE38DE093E02150804004
S11301909040E1F700C00000189B08C08091040162
S11301A0823021F466DF81E08093040108958FE3B7
S11301B087B98FE78AB914B815B8D4DF80910401E0
S11301C08230D9F760D0809306018F7388B95BD0F1
S11301D0809306018F778BB9C5DF2FE38DE093E021
S11301E0215080409040E1F700C00000809104015C
S11301F0823041F3E2CF8F929F92AF92BF92CF921F
S1130200DF92EF92FF92CF93DF93EC0168817981C3
S11302108A819B81611571058105910521F464E250
S113022079ED8BE597E02DE133EF41E050E07FD0AD
S113023049015A019B01AC01A7EAB1E494D06B01D6
S11302407C01ACEEB4EFA501940199D0DC01CB01A3
S11302508C0D9D1DAE1DBF1DB7FF03C00197A109E5
S1130260B04888839983AA83BB83BC01CD019F775F
S1130270DF91CF91FF90EF90DF90CF90BF90AF9040
S11302809F908F9008958F929F92AF92BF92CF923A
S1130290DF92EF92FF9260910001709101018091D1
S11302A0020190910301611571058105910521F405
S11302B064E279ED8BE597E02DE133EF41E050E026
S11302C036D049015A019B01AC01A7EAB1E44BD0F5
S11302D06B017C01ACEEB4EFA501940150D0DC01BC
S11302E0CB018C0D9D1DAE1DBF1DB7FF03C0019733
S11302F0A109B0488093000190930101A0930201E9
S1130300B0930301BC01CD019F77FF90EF90DF9084
S1130310CF90BF90AF909F908F900895609300010D
S11303207093010180930201909303010895052EB7
S113033097FB16F400940FD057FD05D024D007FC8A
S113034002D046F408C050954095309521953F4F12
S11303504F4F5F4F089590958095709561957F4FAD
S11303608F4F9F4F089531D0A59F900DB49F900D4E
S1130370A49F800D911D11240895B7FFF4CFF3DFDE
S1130380821B930B0895A1E21A2EAA1BBB1BFD012D
S11303900DC0AA1FBB1FEE1FFF1FA217B307E40760
S11303A0F50720F0A21BB30BE40BF50B661F771FB8
S11303B0881F991F1A9469F7609570958095909598
S11303C09B01AC01BD01CF010895A29FB001B39F71
S11303D0C001A39F01D0B29F700D811D1124911DF6
S10903E00895F894FFCF1C
S10903E60100000001000B
S9030000FC
